{
    "contractName": "UniswapExample",
    "abi": [
        {
            "inputs": [],
            "name": "chi",
            "outputs": [
                {
                    "internalType": "contract ChiToken",
                    "name": "",
                    "type": "address"
                }
            ],
            "stateMutability": "view",
            "type": "function",
            "constant": true
        },
        {
            "inputs": [],
            "name": "uniRouter",
            "outputs": [
                {
                    "internalType": "contract IUniswapV2Router02",
                    "name": "",
                    "type": "address"
                }
            ],
            "stateMutability": "view",
            "type": "function",
            "constant": true
        },
        {
            "inputs": [
                {
                    "internalType": "address",
                    "name": "token",
                    "type": "address"
                },
                {
                    "internalType": "uint256",
                    "name": "amount",
                    "type": "uint256"
                }
            ],
            "name": "approveToken",
            "outputs": [],
            "stateMutability": "nonpayable",
            "type": "function"
        },
        {
            "inputs": [
                {
                    "internalType": "uint256",
                    "name": "amountIn",
                    "type": "uint256"
                },
                {
                    "internalType": "uint256",
                    "name": "amountOutMin",
                    "type": "uint256"
                },
                {
                    "internalType": "address[]",
                    "name": "path",
                    "type": "address[]"
                },
                {
                    "internalType": "address",
                    "name": "to",
                    "type": "address"
                },
                {
                    "internalType": "uint256",
                    "name": "deadline",
                    "type": "uint256"
                }
            ],
            "name": "swapExactTokensForTokens",
            "outputs": [],
            "stateMutability": "nonpayable",
            "type": "function"
        },
        {
            "inputs": [
                {
                    "internalType": "uint256",
                    "name": "amountIn",
                    "type": "uint256"
                },
                {
                    "internalType": "uint256",
                    "name": "amountOutMin",
                    "type": "uint256"
                },
                {
                    "internalType": "address[]",
                    "name": "path",
                    "type": "address[]"
                },
                {
                    "internalType": "address",
                    "name": "to",
                    "type": "address"
                },
                {
                    "internalType": "uint256",
                    "name": "deadline",
                    "type": "uint256"
                },
                {
                    "internalType": "uint256",
                    "name": "chitokenstoburn",
                    "type": "uint256"
                }
            ],
            "name": "swapExactTokensForTokensDiscount",
            "outputs": [],
            "stateMutability": "nonpayable",
            "type": "function"
        }
    ],
    "bytecode": "0x608060405234801561001057600080fd5b50610860806100206000396000f3fe608060405234801561001057600080fd5b50600436106100575760003560e01c8063022fc88b1461005c57806338ed1739146100aa578063566affdc14610161578063a0e47bf614610222578063c92aecc414610256575b600080fd5b6100a86004803603604081101561007257600080fd5b81019080803573ffffffffffffffffffffffffffffffffffffffff1690602001909291908035906020019092919050505061028a565b005b61015f600480360360a08110156100c057600080fd5b810190808035906020019092919080359060200190929190803590602001906401000000008111156100f157600080fd5b82018360208201111561010357600080fd5b8035906020019184602083028401116401000000008311171561012557600080fd5b9091929391929390803573ffffffffffffffffffffffffffffffffffffffff16906020019092919080359060200190929190505050610355565b005b610220600480360360c081101561017757600080fd5b810190808035906020019092919080359060200190929190803590602001906401000000008111156101a857600080fd5b8201836020820111156101ba57600080fd5b803590602001918460208302840111640100000000831117156101dc57600080fd5b9091929391929390803573ffffffffffffffffffffffffffffffffffffffff16906020019092919080359060200190929190803590602001909291905050506105dc565b005b61022a610800565b604051808273ffffffffffffffffffffffffffffffffffffffff16815260200191505060405180910390f35b61025e610818565b604051808273ffffffffffffffffffffffffffffffffffffffff16815260200191505060405180910390f35b60008290508073ffffffffffffffffffffffffffffffffffffffff1663095ea7b373a5e0829caced8ffdd4de3c43696c57f7d7a678ff846040518363ffffffff1660e01b8152600401808373ffffffffffffffffffffffffffffffffffffffff16815260200182815260200192505050602060405180830381600087803b15801561031457600080fd5b505af1158015610328573d6000803e3d6000fd5b505050506040513d602081101561033e57600080fd5b810190808051906020019092919050505050505050565b73a5e0829caced8ffdd4de3c43696c57f7d7a678ff73ffffffffffffffffffffffffffffffffffffffff166338ed17398787878787876040518763ffffffff1660e01b815260040180878152602001868152602001806020018473ffffffffffffffffffffffffffffffffffffffff1681526020018381526020018281038252868682818152602001925060200280828437600081840152601f19601f820116905080830192505050975050505050505050600060405180830381600087803b15801561042157600080fd5b505af1158015610435573d6000803e3d6000fd5b505050506040513d6000823e3d601f19601f82011682018060405250602081101561045f57600080fd5b810190808051604051939291908464010000000082111561047f57600080fd5b8382019150602082018581111561049557600080fd5b82518660208202830111640100000000821117156104b257600080fd5b8083526020830192505050908051906020019060200280838360005b838110156104e95780820151818401526020810190506104ce565b505050509050016040525050505060003373ffffffffffffffffffffffffffffffffffffffff164760405180600001905060006040518083038185875af1925050503d8060008114610557576040519150601f19603f3d011682016040523d82523d6000602084013e61055c565b606091505b50509050806105d3576040517f08c379a000000000000000000000000000000000000000000000000000000000815260040180806020018281038252600d8152602001807f726566756e64206661696c65640000000000000000000000000000000000000081525060200191505060405180910390fd5b50505050505050565b73a5e0829caced8ffdd4de3c43696c57f7d7a678ff73ffffffffffffffffffffffffffffffffffffffff166338ed17398888888888886040518763ffffffff1660e01b815260040180878152602001868152602001806020018473ffffffffffffffffffffffffffffffffffffffff1681526020018381526020018281038252868682818152602001925060200280828437600081840152601f19601f820116905080830192505050975050505050505050600060405180830381600087803b1580156106a857600080fd5b505af11580156106bc573d6000803e3d6000fd5b505050506040513d6000823e3d601f19601f8201168201806040525060208110156106e657600080fd5b810190808051604051939291908464010000000082111561070657600080fd5b8382019150602082018581111561071c57600080fd5b825186602082028301116401000000008211171561073957600080fd5b8083526020830192505050908051906020019060200280838360005b83811015610770578082015181840152602081019050610755565b50505050905001604052505050506d4946c0e9f43f4dee607b0ef1fa1c73ffffffffffffffffffffffffffffffffffffffff1663d8ccd0f3826040518263ffffffff1660e01b815260040180828152602001915050600060405180830381600087803b1580156107df57600080fd5b505af11580156107f3573d6000803e3d6000fd5b5050505050505050505050565b73a5e0829caced8ffdd4de3c43696c57f7d7a678ff81565b6d4946c0e9f43f4dee607b0ef1fa1c8156fea2646970667358221220505e01b649d8479a84c40980282032d1a173be44c6a88a2b37452d7b1c2d53ec64736f6c634300060c0033",
    "immutableReferences": {},
    "source": "// SPDX-License-Identifier: MIT\r\npragma solidity >=0.6.2;\r\n\r\ninterface IUniswapV2Router01 {\r\n\tfunction factory() external pure returns (address);\r\n\tfunction WETH() external pure returns (address);\r\n\r\n\tfunction addLiquidity(\r\n\t\taddress tokenA,\r\n\t\taddress tokenB,\r\n\t\tuint amountADesired,\r\n\t\tuint amountBDesired,\r\n\t\tuint amountAMin,\r\n\t\tuint amountBMin,\r\n\t\taddress to,\r\n\t\tuint deadline\r\n\t) external returns (uint amountA, uint amountB, uint liquidity);\r\n\tfunction addLiquidityETH(\r\n\t\taddress token,\r\n\t\tuint amountTokenDesired,\r\n\t\tuint amountTokenMin,\r\n\t\tuint amountETHMin,\r\n\t\taddress to,\r\n\t\tuint deadline\r\n\t) external payable returns (uint amountToken, uint amountETH, uint liquidity);\r\n\tfunction removeLiquidity(\r\n\t\taddress tokenA,\r\n\t\taddress tokenB,\r\n\t\tuint liquidity,\r\n\t\tuint amountAMin,\r\n\t\tuint amountBMin,\r\n\t\taddress to,\r\n\t\tuint deadline\r\n\t) external returns (uint amountA, uint amountB);\r\n\tfunction removeLiquidityETH(\r\n\t\taddress token,\r\n\t\tuint liquidity,\r\n\t\tuint amountTokenMin,\r\n\t\tuint amountETHMin,\r\n\t\taddress to,\r\n\t\tuint deadline\r\n\t) external returns (uint amountToken, uint amountETH);\r\n\tfunction removeLiquidityWithPermit(\r\n\t\taddress tokenA,\r\n\t\taddress tokenB,\r\n\t\tuint liquidity,\r\n\t\tuint amountAMin,\r\n\t\tuint amountBMin,\r\n\t\taddress to,\r\n\t\tuint deadline,\r\n\t\tbool approveMax, uint8 v, bytes32 r, bytes32 s\r\n\t) external returns (uint amountA, uint amountB);\r\n\tfunction removeLiquidityETHWithPermit(\r\n\t\taddress token,\r\n\t\tuint liquidity,\r\n\t\tuint amountTokenMin,\r\n\t\tuint amountETHMin,\r\n\t\taddress to,\r\n\t\tuint deadline,\r\n\t\tbool approveMax, uint8 v, bytes32 r, bytes32 s\r\n\t) external returns (uint amountToken, uint amountETH);\r\n\tfunction swapExactTokensForTokens(\r\n\t\tuint amountIn,\r\n\t\tuint amountOutMin,\r\n\t\taddress[] calldata path,\r\n\t\taddress to,\r\n\t\tuint deadline\r\n\t) external returns (uint[] memory amounts);\r\n\tfunction swapTokensForExactTokens(\r\n\t\tuint amountOut,\r\n\t\tuint amountInMax,\r\n\t\taddress[] calldata path,\r\n\t\taddress to,\r\n\t\tuint deadline\r\n\t) external returns (uint[] memory amounts);\r\n\tfunction swapExactETHForTokens(uint amountOutMin, address[] calldata path, address to, uint deadline)\r\n\texternal\r\n\tpayable\r\n\treturns (uint[] memory amounts);\r\n\tfunction swapTokensForExactETH(uint amountOut, uint amountInMax, address[] calldata path, address to, uint deadline)\r\n\texternal\r\n\treturns (uint[] memory amounts);\r\n\tfunction swapExactTokensForETH(uint amountIn, uint amountOutMin, address[] calldata path, address to, uint deadline)\r\n\texternal\r\n\treturns (uint[] memory amounts);\r\n\tfunction swapETHForExactTokens(uint amountOut, address[] calldata path, address to, uint deadline)\r\n\texternal\r\n\tpayable\r\n\treturns (uint[] memory amounts);\r\n\r\n\tfunction quote(uint amountA, uint reserveA, uint reserveB) external pure returns (uint amountB);\r\n\tfunction getAmountOut(uint amountIn, uint reserveIn, uint reserveOut) external pure returns (uint amountOut);\r\n\tfunction getAmountIn(uint amountOut, uint reserveIn, uint reserveOut) external pure returns (uint amountIn);\r\n\tfunction getAmountsOut(uint amountIn, address[] calldata path) external view returns (uint[] memory amounts);\r\n\tfunction getAmountsIn(uint amountOut, address[] calldata path) external view returns (uint[] memory amounts);\r\n}\r\n\r\ninterface IUniswapV2Router02 is IUniswapV2Router01 {\r\n\tfunction removeLiquidityETHSupportingFeeOnTransferTokens(\r\n\t\taddress token,\r\n\t\tuint liquidity,\r\n\t\tuint amountTokenMin,\r\n\t\tuint amountETHMin,\r\n\t\taddress to,\r\n\t\tuint deadline\r\n\t) external returns (uint amountETH);\r\n\tfunction removeLiquidityETHWithPermitSupportingFeeOnTransferTokens(\r\n\t\taddress token,\r\n\t\tuint liquidity,\r\n\t\tuint amountTokenMin,\r\n\t\tuint amountETHMin,\r\n\t\taddress to,\r\n\t\tuint deadline,\r\n\t\tbool approveMax, uint8 v, bytes32 r, bytes32 s\r\n\t) external returns (uint amountETH);\r\n\r\n\tfunction swapExactTokensForTokensSupportingFeeOnTransferTokens(\r\n\t\tuint amountIn,\r\n\t\tuint amountOutMin,\r\n\t\taddress[] calldata path,\r\n\t\taddress to,\r\n\t\tuint deadline\r\n\t) external;\r\n\tfunction swapExactETHForTokensSupportingFeeOnTransferTokens(\r\n\t\tuint amountOutMin,\r\n\t\taddress[] calldata path,\r\n\t\taddress to,\r\n\t\tuint deadline\r\n\t) external payable;\r\n\tfunction swapExactTokensForETHSupportingFeeOnTransferTokens(\r\n\t\tuint amountIn,\r\n\t\tuint amountOutMin,\r\n\t\taddress[] calldata path,\r\n\t\taddress to,\r\n\t\tuint deadline\r\n\t) external;\r\n}\r\n\r\n/**\r\n * @dev Interface of the ERC20 standard as defined in the EIP.\r\n */\r\ninterface IERC20 {\r\n\t/**\r\n     * @dev Emitted when the allowance of a `spender` for an `owner` is set by\r\n     * a call to {approve}. `value` is the new allowance.\r\n     */\r\n\tfunction approve(address spender, uint256 amount) external returns (bool);\r\n}\r\n\r\ninterface ChiToken {\r\n    function free(uint256 value) external;\r\n}\r\n\r\ncontract UniswapExample {\r\n\tChiToken constant public chi = ChiToken(0x0000000000004946c0e9F43F4Dee607b0eF1fA1c);\r\n\tIUniswapV2Router02 constant public uniRouter = IUniswapV2Router02(0xa5E0829CaCEd8fFDD4De3c43696c57F7D7A678ff);\r\n\r\n\tmodifier discountCHI {\r\n\t\tuint256 gasStart = gasleft();\r\n\r\n\t\t_;\r\n\r\n\t\tuint256 gasSpent = 21000 + gasStart - gasleft() + 16 * msg.data.length;\r\n\t\t//chi.freeFromUpTo(address(this), (gasSpent + 14154) / 41947);\r\n\t\tchi.free((gasSpent + 14154) / 41947);\r\n\t}\r\n\r\n\tfunction approveToken(address token, uint amount) external\r\n\t{\r\n\t\tIERC20 erc20approveToken = IERC20(token);\r\n\t\terc20approveToken.approve(address(uniRouter), amount);\r\n\t}\r\n\r\n  \tfunction swapExactTokensForTokens(\r\n        uint amountIn,\r\n        uint amountOutMin,\r\n        address[] calldata path,\r\n        address to,\r\n        uint deadline\r\n    ) external\r\n\t{\r\n\t\tuniRouter.swapExactTokensForTokens(amountIn, amountOutMin, path, to, deadline);\r\n\t\t// refund leftover ETH to user\r\n\t\t(bool success,) = msg.sender.call{ value: address(this).balance }(\"\");\r\n\t\trequire(success, \"refund failed\");\t\t\r\n\t}\r\n\r\n\tfunction swapExactTokensForTokensDiscount(\r\n        uint amountIn,\r\n        uint amountOutMin,\r\n        address[] calldata path,\r\n        address to,\r\n        uint deadline,\r\n\t\tuint chitokenstoburn\r\n    ) external\r\n\t{\r\n\t\tuniRouter.swapExactTokensForTokens(amountIn, amountOutMin, path, to, deadline);\r\n\t\tchi.free(chitokenstoburn);\r\n\t}\r\n  \r\n}",
    "sourcePath": "C:\\scx1332\\unibot\\contract-test\\contracts\\UniswapExample.sol",
    "compiler": {
        "name": "solc",
        "version": "0.6.12+commit.27d51765.Emscripten.clang"
    },
    "schemaVersion": "3.4.3",
    "updatedAt": "2021-11-04T21:23:23.864Z",
    "networkType": "ethereum",
    "devdoc": {
        "kind": "dev",
        "methods": {},
        "version": 1
    },
    "userdoc": {
        "kind": "user",
        "methods": {},
        "version": 1
    }
}